{
  "address": "0x05354bc8Ce39e7D4c505eE29E090ce4A5611dFde",
  "abi": [
    {
      "inputs": [
        {
          "internalType": "contract ENS",
          "name": "ensAddr",
          "type": "address"
        }
      ],
      "stateMutability": "nonpayable",
      "type": "constructor"
    },
    {
      "inputs": [],
      "name": "InvalidSignature",
      "type": "error"
    },
    {
      "anonymous": false,
      "inputs": [
        {
          "indexed": true,
          "internalType": "address",
          "name": "controller",
          "type": "address"
        },
        {
          "indexed": false,
          "internalType": "bool",
          "name": "enabled",
          "type": "bool"
        }
      ],
      "name": "ControllerChanged",
      "type": "event"
    },
    {
      "anonymous": false,
      "inputs": [
        {
          "indexed": true,
          "internalType": "contract NameResolver",
          "name": "resolver",
          "type": "address"
        }
      ],
      "name": "DefaultResolverChanged",
      "type": "event"
    },
    {
      "anonymous": false,
      "inputs": [
        {
          "indexed": true,
          "internalType": "address",
          "name": "previousOwner",
          "type": "address"
        },
        {
          "indexed": true,
          "internalType": "address",
          "name": "newOwner",
          "type": "address"
        }
      ],
      "name": "OwnershipTransferred",
      "type": "event"
    },
    {
      "anonymous": false,
      "inputs": [
        {
          "indexed": true,
          "internalType": "address",
          "name": "addr",
          "type": "address"
        },
        {
          "indexed": true,
          "internalType": "bytes32",
          "name": "node",
          "type": "bytes32"
        }
      ],
      "name": "ReverseClaimed",
      "type": "event"
    },
    {
      "inputs": [
        {
          "internalType": "address",
          "name": "owner",
          "type": "address"
        }
      ],
      "name": "claim",
      "outputs": [
        {
          "internalType": "bytes32",
          "name": "",
          "type": "bytes32"
        }
      ],
      "stateMutability": "nonpayable",
      "type": "function"
    },
    {
      "inputs": [
        {
          "internalType": "address",
          "name": "addr",
          "type": "address"
        },
        {
          "internalType": "address",
          "name": "owner",
          "type": "address"
        },
        {
          "internalType": "address",
          "name": "resolver",
          "type": "address"
        }
      ],
      "name": "claimForAddr",
      "outputs": [
        {
          "internalType": "bytes32",
          "name": "",
          "type": "bytes32"
        }
      ],
      "stateMutability": "nonpayable",
      "type": "function"
    },
    {
      "inputs": [
        {
          "internalType": "address",
          "name": "addr",
          "type": "address"
        },
        {
          "internalType": "address",
          "name": "owner",
          "type": "address"
        },
        {
          "internalType": "address",
          "name": "resolver",
          "type": "address"
        },
        {
          "internalType": "address",
          "name": "relayer",
          "type": "address"
        },
        {
          "internalType": "uint256",
          "name": "signatureExpiry",
          "type": "uint256"
        },
        {
          "internalType": "bytes",
          "name": "signature",
          "type": "bytes"
        }
      ],
      "name": "claimForAddrWithSignature",
      "outputs": [
        {
          "internalType": "bytes32",
          "name": "",
          "type": "bytes32"
        }
      ],
      "stateMutability": "nonpayable",
      "type": "function"
    },
    {
      "inputs": [
        {
          "internalType": "address",
          "name": "owner",
          "type": "address"
        },
        {
          "internalType": "address",
          "name": "resolver",
          "type": "address"
        }
      ],
      "name": "claimWithResolver",
      "outputs": [
        {
          "internalType": "bytes32",
          "name": "",
          "type": "bytes32"
        }
      ],
      "stateMutability": "nonpayable",
      "type": "function"
    },
    {
      "inputs": [
        {
          "internalType": "address",
          "name": "",
          "type": "address"
        }
      ],
      "name": "controllers",
      "outputs": [
        {
          "internalType": "bool",
          "name": "",
          "type": "bool"
        }
      ],
      "stateMutability": "view",
      "type": "function"
    },
    {
      "inputs": [],
      "name": "defaultResolver",
      "outputs": [
        {
          "internalType": "contract NameResolver",
          "name": "",
          "type": "address"
        }
      ],
      "stateMutability": "view",
      "type": "function"
    },
    {
      "inputs": [],
      "name": "ens",
      "outputs": [
        {
          "internalType": "contract ENS",
          "name": "",
          "type": "address"
        }
      ],
      "stateMutability": "view",
      "type": "function"
    },
    {
      "inputs": [
        {
          "internalType": "address",
          "name": "addr",
          "type": "address"
        }
      ],
      "name": "node",
      "outputs": [
        {
          "internalType": "bytes32",
          "name": "",
          "type": "bytes32"
        }
      ],
      "stateMutability": "pure",
      "type": "function"
    },
    {
      "inputs": [],
      "name": "owner",
      "outputs": [
        {
          "internalType": "address",
          "name": "",
          "type": "address"
        }
      ],
      "stateMutability": "view",
      "type": "function"
    },
    {
      "inputs": [],
      "name": "renounceOwnership",
      "outputs": [],
      "stateMutability": "nonpayable",
      "type": "function"
    },
    {
      "inputs": [
        {
          "internalType": "address",
          "name": "controller",
          "type": "address"
        },
        {
          "internalType": "bool",
          "name": "enabled",
          "type": "bool"
        }
      ],
      "name": "setController",
      "outputs": [],
      "stateMutability": "nonpayable",
      "type": "function"
    },
    {
      "inputs": [
        {
          "internalType": "address",
          "name": "resolver",
          "type": "address"
        }
      ],
      "name": "setDefaultResolver",
      "outputs": [],
      "stateMutability": "nonpayable",
      "type": "function"
    },
    {
      "inputs": [
        {
          "internalType": "string",
          "name": "name",
          "type": "string"
        }
      ],
      "name": "setName",
      "outputs": [
        {
          "internalType": "bytes32",
          "name": "",
          "type": "bytes32"
        }
      ],
      "stateMutability": "nonpayable",
      "type": "function"
    },
    {
      "inputs": [
        {
          "internalType": "address",
          "name": "addr",
          "type": "address"
        },
        {
          "internalType": "address",
          "name": "owner",
          "type": "address"
        },
        {
          "internalType": "address",
          "name": "resolver",
          "type": "address"
        },
        {
          "internalType": "string",
          "name": "name",
          "type": "string"
        }
      ],
      "name": "setNameForAddr",
      "outputs": [
        {
          "internalType": "bytes32",
          "name": "",
          "type": "bytes32"
        }
      ],
      "stateMutability": "nonpayable",
      "type": "function"
    },
    {
      "inputs": [
        {
          "internalType": "address",
          "name": "addr",
          "type": "address"
        },
        {
          "internalType": "address",
          "name": "owner",
          "type": "address"
        },
        {
          "internalType": "address",
          "name": "resolver",
          "type": "address"
        },
        {
          "internalType": "address",
          "name": "relayer",
          "type": "address"
        },
        {
          "internalType": "uint256",
          "name": "signatureExpiry",
          "type": "uint256"
        },
        {
          "internalType": "bytes",
          "name": "signature",
          "type": "bytes"
        },
        {
          "internalType": "string",
          "name": "name",
          "type": "string"
        }
      ],
      "name": "setNameForAddrWithSignature",
      "outputs": [
        {
          "internalType": "bytes32",
          "name": "",
          "type": "bytes32"
        }
      ],
      "stateMutability": "nonpayable",
      "type": "function"
    },
    {
      "inputs": [
        {
          "internalType": "address",
          "name": "newOwner",
          "type": "address"
        }
      ],
      "name": "transferOwnership",
      "outputs": [],
      "stateMutability": "nonpayable",
      "type": "function"
    }
  ],
  "transactionHash": "0xb9f58bead011ce2c321a7829ff814ff6e3115302f1999d29145899fac31f8268",
  "args": [
    "0x79A63218AA430D9587De5Ccc8484D6cFd61DC02e"
  ],
  "numDeployments": 1,
  "solcInputHash": "2ce8266822fd006be7b466de237b7b59",
  "bytecode": "0x60a06040523480156200001157600080fd5b50604051620016c6380380620016c68339810160408190526200003491620001c4565b6200003f336200015b565b6001600160a01b03811660808190526040516302571be360e01b81527f91d1777781884d03a6757a803996e38de2a42967fb37eeaca72729271025a9e26004820152600091906302571be390602401602060405180830381865afa158015620000ac573d6000803e3d6000fd5b505050506040513d601f19601f82011682018060405250810190620000d29190620001c4565b90506001600160a01b038116156200015357604051630f41a04d60e11b81523360048201526001600160a01b03821690631e83409a906024016020604051808303816000875af11580156200012b573d6000803e3d6000fd5b505050506040513d601f19601f82011682018060405250810190620001519190620001eb565b505b505062000205565b600080546001600160a01b038381166001600160a01b0319831681178455604051919092169283917f8be0079c531659141344cd1fd0a4f28419497f9722a3daafe3b4186f6b6457e09190a35050565b6001600160a01b0381168114620001c157600080fd5b50565b600060208284031215620001d757600080fd5b8151620001e481620001ab565b9392505050565b600060208284031215620001fe57600080fd5b5051919050565b60805161149062000236600039600081816101430152818161032401528181610522015261080701526114906000f3fe608060405234801561001057600080fd5b50600436106101005760003560e01c80638da5cb5b11610097578063c66485b211610066578063c66485b21461021d578063da8c229e14610230578063e0dba60f14610263578063f2fde38b1461027657600080fd5b80638da5cb5b146101d3578063b1277045146101e4578063bffbe61c146101f7578063c47f00271461020a57600080fd5b8063715018a6116100d3578063715018a6146101905780637a806d6b1461019a578063821ca7e9146101ad578063828eab0e146101c057600080fd5b80630f5a5466146101055780631e83409a1461012b5780633f15457f1461013e578063656696311461017d575b600080fd5b610118610113366004610fd1565b610289565b6040519081526020015b60405180910390f35b61011861013936600461100a565b61029f565b6101657f000000000000000000000000000000000000000000000000000000000000000081565b6040516001600160a01b039091168152602001610122565b61011861018b366004611027565b6102b7565b610198610589565b005b6101186101a8366004611115565b61059d565b6101186101bb36600461118a565b610618565b600254610165906001600160a01b031681565b6000546001600160a01b0316610165565b6101186101f236600461121a565b610872565b61011861020536600461100a565b6108f3565b6101186102183660046112d2565b61094f565b61019861022b36600461100a565b61096c565b61025361023e36600461100a565b60016020526000908152604090205460ff1681565b6040519015158152602001610122565b61019861027136600461131d565b610a47565b61019861028436600461100a565b610aae565b60006102963384846102b7565b90505b92915050565b60025460009061029990339084906001600160a01b03165b6000836001600160a01b0381163314806102e057503360009081526001602052604090205460ff165b8061038f57506040517fe985e9c50000000000000000000000000000000000000000000000000000000081526001600160a01b0382811660048301523360248301527f0000000000000000000000000000000000000000000000000000000000000000169063e985e9c590604401602060405180830381865afa15801561036b573d6000803e3d6000fd5b505050506040513d601f19601f8201168201806040525081019061038f919061134b565b8061039e575061039e81610b3e565b61043b5760405162461bcd60e51b815260206004820152605b60248201527f526576657273655265676973747261723a2043616c6c6572206973206e6f742060448201527f6120636f6e74726f6c6c6572206f7220617574686f726973656420627920616460648201527f6472657373206f7220746865206164647265737320697473656c660000000000608482015260a4015b60405180910390fd5b600061044686610bb7565b604080517f91d1777781884d03a6757a803996e38de2a42967fb37eeaca72729271025a9e2602080830191909152818301849052825180830384018152606090920192839052815191012091925081906001600160a01b038916907f6ada868dd3058cf77a48a74489fd7963688e5464b2b0fa957ace976243270e9290600090a36040516305ef2c7f60e41b81527f91d1777781884d03a6757a803996e38de2a42967fb37eeaca72729271025a9e26004820152602481018390526001600160a01b0387811660448301528681166064830152600060848301527f00000000000000000000000000000000000000000000000000000000000000001690635ef2c7f09060a401600060405180830381600087803b15801561056657600080fd5b505af115801561057a573d6000803e3d6000fd5b50929998505050505050505050565b610591610c37565b61059b6000610c91565b565b6000806105ab8686866102b7565b604051637737221360e01b81529091506001600160a01b038516906377372213906105dc90849087906004016113b8565b600060405180830381600087803b1580156105f657600080fd5b505af115801561060a573d6000803e3d6000fd5b509298975050505050505050565b60008061062488610bb7565b604080517f91d1777781884d03a6757a803996e38de2a42967fb37eeaca72729271025a9e2602080830191909152818301849052825180830384018152606080840185528151918301919091207f821ca7e90000000000000000000000000000000000000000000000000000000060808501526bffffffffffffffffffffffff198e831b811660848601528d831b811660988601528c831b811660ac860152918b901b90911660c084015260d48084018a90528451808503909101815260f490930190935281519101209192509060006106fd82610cee565b905061070a8b8288610d29565b158061071f57506001600160a01b0388163314155b8061072957504287105b8061073f575061073c42620151806113d1565b87115b15610776576040517f8baa579f00000000000000000000000000000000000000000000000000000000815260040160405180910390fd5b60405183906001600160a01b038d16907f6ada868dd3058cf77a48a74489fd7963688e5464b2b0fa957ace976243270e9290600090a36040516305ef2c7f60e41b81527f91d1777781884d03a6757a803996e38de2a42967fb37eeaca72729271025a9e26004820152602481018590526001600160a01b038b811660448301528a81166064830152600060848301527f00000000000000000000000000000000000000000000000000000000000000001690635ef2c7f09060a401600060405180830381600087803b15801561084b57600080fd5b505af115801561085f573d6000803e3d6000fd5b50949d9c50505050505050505050505050565b600080610883898989898989610618565b604051637737221360e01b81529091506001600160a01b038816906377372213906108b490849087906004016113b8565b600060405180830381600087803b1580156108ce57600080fd5b505af11580156108e2573d6000803e3d6000fd5b50929b9a5050505050505050505050565b60007f91d1777781884d03a6757a803996e38de2a42967fb37eeaca72729271025a9e261091f83610bb7565b6040805160208101939093528201526060015b604051602081830303815290604052805190602001209050919050565b60025460009061029990339081906001600160a01b03168561059d565b610974610c37565b6001600160a01b0381166109f05760405162461bcd60e51b815260206004820152603060248201527f526576657273655265676973747261723a205265736f6c76657220616464726560448201527f7373206d757374206e6f742062652030000000000000000000000000000000006064820152608401610432565b6002805473ffffffffffffffffffffffffffffffffffffffff19166001600160a01b0383169081179091556040517feae17a84d9eb83d8c8eb317f9e7d64857bc363fa51674d996c023f4340c577cf90600090a250565b610a4f610c37565b6001600160a01b038216600081815260016020908152604091829020805460ff191685151590811790915591519182527f4c97694570a07277810af7e5669ffd5f6a2d6b74b6e9a274b8b870fd5114cf87910160405180910390a25050565b610ab6610c37565b6001600160a01b038116610b325760405162461bcd60e51b815260206004820152602660248201527f4f776e61626c653a206e6577206f776e657220697320746865207a65726f206160448201527f64647265737300000000000000000000000000000000000000000000000000006064820152608401610432565b610b3b81610c91565b50565b6000816001600160a01b0316638da5cb5b6040518163ffffffff1660e01b8152600401602060405180830381865afa925050508015610b9a575060408051601f3d908101601f19168201909252610b97918101906113f2565b60015b610ba657506000919050565b6001600160a01b0316331492915050565b600060285b8015610c2b57600019017f3031323334353637383961626364656600000000000000000000000000000000600f84161a8153601090920491600019017f3031323334353637383961626364656600000000000000000000000000000000600f84161a8153601083049250610bbc565b50506028600020919050565b6000546001600160a01b0316331461059b5760405162461bcd60e51b815260206004820181905260248201527f4f776e61626c653a2063616c6c6572206973206e6f7420746865206f776e65726044820152606401610432565b600080546001600160a01b0383811673ffffffffffffffffffffffffffffffffffffffff19831681178455604051919092169283917f8be0079c531659141344cd1fd0a4f28419497f9722a3daafe3b4186f6b6457e09190a35050565b6040517f19457468657265756d205369676e6564204d6573736167653a0a3332000000006020820152603c8101829052600090605c01610932565b6000806000610d388585610eb3565b90925090506000816004811115610d5157610d5161140f565b148015610d6f5750856001600160a01b0316826001600160a01b0316145b15610d7f57600192505050610eac565b600080876001600160a01b0316631626ba7e60e01b8888604051602401610da79291906113b8565b60408051601f198184030181529181526020820180517bffffffffffffffffffffffffffffffffffffffffffffffffffffffff167fffffffff00000000000000000000000000000000000000000000000000000000909416939093179092529051610e129190611425565b600060405180830381855afa9150503d8060008114610e4d576040519150601f19603f3d011682016040523d82523d6000602084013e610e52565b606091505b5091509150818015610e65575080516020145b8015610ea5575080517f1626ba7e0000000000000000000000000000000000000000000000000000000090610ea39083016020908101908401611441565b145b9450505050505b9392505050565b6000808251604103610ee95760208301516040840151606085015160001a610edd87828585610ef8565b94509450505050610ef1565b506000905060025b9250929050565b6000807f7fffffffffffffffffffffffffffffff5d576e7357a4501ddfe92f46681b20a0831115610f2f5750600090506003610fb3565b6040805160008082526020820180845289905260ff881692820192909252606081018690526080810185905260019060a0016020604051602081039080840390855afa158015610f83573d6000803e3d6000fd5b5050604051601f1901519150506001600160a01b038116610fac57600060019250925050610fb3565b9150600090505b94509492505050565b6001600160a01b0381168114610b3b57600080fd5b60008060408385031215610fe457600080fd5b8235610fef81610fbc565b91506020830135610fff81610fbc565b809150509250929050565b60006020828403121561101c57600080fd5b8135610eac81610fbc565b60008060006060848603121561103c57600080fd5b833561104781610fbc565b9250602084013561105781610fbc565b9150604084013561106781610fbc565b809150509250925092565b634e487b7160e01b600052604160045260246000fd5b600082601f83011261109957600080fd5b813567ffffffffffffffff808211156110b4576110b4611072565b604051601f8301601f19908116603f011681019082821181831017156110dc576110dc611072565b816040528381528660208588010111156110f557600080fd5b836020870160208301376000602085830101528094505050505092915050565b6000806000806080858703121561112b57600080fd5b843561113681610fbc565b9350602085013561114681610fbc565b9250604085013561115681610fbc565b9150606085013567ffffffffffffffff81111561117257600080fd5b61117e87828801611088565b91505092959194509250565b60008060008060008060c087890312156111a357600080fd5b86356111ae81610fbc565b955060208701356111be81610fbc565b945060408701356111ce81610fbc565b935060608701356111de81610fbc565b92506080870135915060a087013567ffffffffffffffff81111561120157600080fd5b61120d89828a01611088565b9150509295509295509295565b600080600080600080600060e0888a03121561123557600080fd5b873561124081610fbc565b9650602088013561125081610fbc565b9550604088013561126081610fbc565b9450606088013561127081610fbc565b93506080880135925060a088013567ffffffffffffffff8082111561129457600080fd5b6112a08b838c01611088565b935060c08a01359150808211156112b657600080fd5b506112c38a828b01611088565b91505092959891949750929550565b6000602082840312156112e457600080fd5b813567ffffffffffffffff8111156112fb57600080fd5b61130784828501611088565b949350505050565b8015158114610b3b57600080fd5b6000806040838503121561133057600080fd5b823561133b81610fbc565b91506020830135610fff8161130f565b60006020828403121561135d57600080fd5b8151610eac8161130f565b60005b8381101561138357818101518382015260200161136b565b50506000910152565b600081518084526113a4816020860160208601611368565b601f01601f19169290920160200192915050565b828152604060208201526000611307604083018461138c565b8082018082111561029957634e487b7160e01b600052601160045260246000fd5b60006020828403121561140457600080fd5b8151610eac81610fbc565b634e487b7160e01b600052602160045260246000fd5b60008251611437818460208701611368565b9190910192915050565b60006020828403121561145357600080fd5b505191905056fea26469706673582212204b3615d155049e26d0ff4e54c92e176e96ecb61537fe70883e550369f2494f7f64736f6c63430008110033",
  "devdoc": {
    "kind": "dev",
    "methods": {
      "claim(address)": {
        "details": "Transfers ownership of the reverse ENS record associated with the      calling account.",
        "params": {
          "owner": "The address to set as the owner of the reverse record in ENS."
        },
        "returns": {
          "_0": "The ENS node hash of the reverse record."
        }
      },
      "claimForAddr(address,address,address)": {
        "details": "Transfers ownership of the reverse ENS record associated with the      calling account.",
        "params": {
          "addr": "The reverse record to set",
          "owner": "The address to set as the owner of the reverse record in ENS.",
          "resolver": "The resolver of the reverse node"
        },
        "returns": {
          "_0": "The ENS node hash of the reverse record."
        }
      },
      "claimForAddrWithSignature(address,address,address,address,uint256,bytes)": {
        "details": "Transfers ownership of the reverse ENS record associated with the      calling account.",
        "params": {
          "addr": "The reverse record to set",
          "owner": "The address to set as the owner of the reverse record in ENS.",
          "resolver": "The resolver of the reverse node"
        },
        "returns": {
          "_0": "The ENS node hash of the reverse record."
        }
      },
      "claimWithResolver(address,address)": {
        "details": "Transfers ownership of the reverse ENS record associated with the      calling account.",
        "params": {
          "owner": "The address to set as the owner of the reverse record in ENS.",
          "resolver": "The address of the resolver to set; 0 to leave unchanged."
        },
        "returns": {
          "_0": "The ENS node hash of the reverse record."
        }
      },
      "constructor": {
        "details": "Constructor",
        "params": {
          "ensAddr": "The address of the ENS registry."
        }
      },
      "node(address)": {
        "details": "Returns the node hash for a given account's reverse records.",
        "params": {
          "addr": "The address to hash"
        },
        "returns": {
          "_0": "The ENS node hash."
        }
      },
      "owner()": {
        "details": "Returns the address of the current owner."
      },
      "renounceOwnership()": {
        "details": "Leaves the contract without owner. It will not be possible to call `onlyOwner` functions anymore. Can only be called by the current owner. NOTE: Renouncing ownership will leave the contract without an owner, thereby removing any functionality that is only available to the owner."
      },
      "setName(string)": {
        "details": "Sets the `name()` record for the reverse ENS record associated with the calling account. First updates the resolver to the default reverse resolver if necessary.",
        "params": {
          "name": "The name to set for this address."
        },
        "returns": {
          "_0": "The ENS node hash of the reverse record."
        }
      },
      "setNameForAddr(address,address,address,string)": {
        "details": "Sets the `name()` record for the reverse ENS record associated with the account provided. Updates the resolver to a designated resolver Only callable by controllers and authorised users",
        "params": {
          "addr": "The reverse record to set",
          "name": "The name to set for this address.",
          "owner": "The owner of the reverse node",
          "resolver": "The resolver of the reverse node"
        },
        "returns": {
          "_0": "The ENS node hash of the reverse record."
        }
      },
      "setNameForAddrWithSignature(address,address,address,address,uint256,bytes,string)": {
        "details": "Sets the `name()` record for the reverse ENS record associated with the account provided. Updates the resolver to a designated resolver Only callable by controllers and authorised users",
        "params": {
          "addr": "The reverse record to set",
          "name": "The name to set for this address.",
          "owner": "The owner of the reverse node",
          "resolver": "The resolver of the reverse node"
        },
        "returns": {
          "_0": "The ENS node hash of the reverse record."
        }
      },
      "transferOwnership(address)": {
        "details": "Transfers ownership of the contract to a new account (`newOwner`). Can only be called by the current owner."
      }
    },
    "version": 1
  },
  "userdoc": {
    "kind": "user",
    "methods": {},
    "version": 1
  },
  "storageLayout": {
    "storage": [
      {
        "astId": 428,
        "contract": "contracts/reverseRegistrar/ReverseRegistrar.sol:ReverseRegistrar",
        "label": "_owner",
        "offset": 0,
        "slot": "0",
        "type": "t_address"
      },
      {
        "astId": 14629,
        "contract": "contracts/reverseRegistrar/ReverseRegistrar.sol:ReverseRegistrar",
        "label": "controllers",
        "offset": 0,
        "slot": "1",
        "type": "t_mapping(t_address,t_bool)"
      },
      {
        "astId": 14151,
        "contract": "contracts/reverseRegistrar/ReverseRegistrar.sol:ReverseRegistrar",
        "label": "defaultResolver",
        "offset": 0,
        "slot": "2",
        "type": "t_contract(NameResolver)14131"
      }
    ],
    "types": {
      "t_address": {
        "encoding": "inplace",
        "label": "address",
        "numberOfBytes": "20"
      },
      "t_bool": {
        "encoding": "inplace",
        "label": "bool",
        "numberOfBytes": "1"
      },
      "t_contract(NameResolver)14131": {
        "encoding": "inplace",
        "label": "contract NameResolver",
        "numberOfBytes": "20"
      },
      "t_mapping(t_address,t_bool)": {
        "encoding": "mapping",
        "key": "t_address",
        "label": "mapping(address => bool)",
        "numberOfBytes": "32",
        "value": "t_bool"
      }
    }
  }
}